{
  "contractName": "Insurance",
  "abi": [
    {
      "inputs": [],
      "stateMutability": "nonpayable",
      "type": "constructor"
    },
    {
      "inputs": [
        {
          "internalType": "address",
          "name": "",
          "type": "address"
        }
      ],
      "name": "claims",
      "outputs": [
        {
          "internalType": "uint256",
          "name": "",
          "type": "uint256"
        }
      ],
      "stateMutability": "view",
      "type": "function"
    },
    {
      "inputs": [
        {
          "internalType": "address",
          "name": "",
          "type": "address"
        }
      ],
      "name": "policies",
      "outputs": [
        {
          "internalType": "uint256",
          "name": "",
          "type": "uint256"
        }
      ],
      "stateMutability": "view",
      "type": "function"
    },
    {
      "inputs": [
        {
          "internalType": "uint256",
          "name": "",
          "type": "uint256"
        }
      ],
      "name": "policyholders",
      "outputs": [
        {
          "internalType": "address",
          "name": "",
          "type": "address"
        }
      ],
      "stateMutability": "view",
      "type": "function"
    },
    {
      "inputs": [],
      "name": "totalPremium",
      "outputs": [
        {
          "internalType": "uint256",
          "name": "",
          "type": "uint256"
        }
      ],
      "stateMutability": "view",
      "type": "function"
    },
    {
      "inputs": [
        {
          "internalType": "uint256",
          "name": "premium",
          "type": "uint256"
        }
      ],
      "name": "purchasePolicy",
      "outputs": [],
      "stateMutability": "payable",
      "type": "function"
    },
    {
      "inputs": [
        {
          "internalType": "uint256",
          "name": "amount",
          "type": "uint256"
        }
      ],
      "name": "fileClaim",
      "outputs": [],
      "stateMutability": "nonpayable",
      "type": "function"
    },
    {
      "inputs": [
        {
          "internalType": "address",
          "name": "policyholder",
          "type": "address"
        }
      ],
      "name": "approveClaim",
      "outputs": [],
      "stateMutability": "nonpayable",
      "type": "function"
    },
    {
      "inputs": [
        {
          "internalType": "address",
          "name": "policyholder",
          "type": "address"
        }
      ],
      "name": "getPolicy",
      "outputs": [
        {
          "internalType": "uint256",
          "name": "",
          "type": "uint256"
        }
      ],
      "stateMutability": "view",
      "type": "function"
    },
    {
      "inputs": [
        {
          "internalType": "address",
          "name": "policyholder",
          "type": "address"
        }
      ],
      "name": "getClaim",
      "outputs": [
        {
          "internalType": "uint256",
          "name": "",
          "type": "uint256"
        }
      ],
      "stateMutability": "view",
      "type": "function"
    },
    {
      "inputs": [],
      "name": "getTotalPremium",
      "outputs": [
        {
          "internalType": "uint256",
          "name": "",
          "type": "uint256"
        }
      ],
      "stateMutability": "view",
      "type": "function"
    },
    {
      "inputs": [
        {
          "internalType": "address payable",
          "name": "user",
          "type": "address"
        }
      ],
      "name": "grantAccess",
      "outputs": [],
      "stateMutability": "nonpayable",
      "type": "function"
    },
    {
      "inputs": [
        {
          "internalType": "address payable",
          "name": "user",
          "type": "address"
        }
      ],
      "name": "revokeAccess",
      "outputs": [],
      "stateMutability": "nonpayable",
      "type": "function"
    },
    {
      "inputs": [],
      "name": "destroy",
      "outputs": [],
      "stateMutability": "nonpayable",
      "type": "function"
    }
  ],
  "bytecode": "0x608060405234801561001057600080fd5b5033600360006101000a81548173ffffffffffffffffffffffffffffffffffffffff021916908373ffffffffffffffffffffffffffffffffffffffff160217905550611457806100616000396000f3fe6080604052600436106100c25760003560e01c806383197ef01161007f578063c6788bdd11610059578063c6788bdd14610259578063d61909f914610296578063dbb773d9146102bf578063ed130a21146102e8576100c2565b806383197ef0146101fd57806385e6853114610214578063c1260c9a1461023d576100c2565b80630ae5e739146100c757806320e98698146100f05780633791dc6a1461012d5780634cd3723a1461016a5780634d21af96146101a757806373f16751146101d2575b600080fd5b3480156100d357600080fd5b506100ee60048036038101906100e99190610c64565b610325565b005b3480156100fc57600080fd5b5061011760048036038101906101129190610ccf565b6103f9565b6040516101249190610d15565b60405180910390f35b34801561013957600080fd5b50610154600480360381019061014f9190610ccf565b610411565b6040516101619190610d15565b60405180910390f35b34801561017657600080fd5b50610191600480360381019061018c9190610ccf565b61045a565b60405161019e9190610d15565b60405180910390f35b3480156101b357600080fd5b506101bc6104a3565b6040516101c99190610d15565b60405180910390f35b3480156101de57600080fd5b506101e76104a9565b6040516101f49190610d15565b60405180910390f35b34801561020957600080fd5b506102126104b3565b005b34801561022057600080fd5b5061023b60048036038101906102369190610c64565b61057e565b005b61025760048036038101906102529190610d5c565b6106e2565b005b34801561026557600080fd5b50610280600480360381019061027b9190610ccf565b61082a565b60405161028d9190610d15565b60405180910390f35b3480156102a257600080fd5b506102bd60048036038101906102b89190610d5c565b610842565b005b3480156102cb57600080fd5b506102e660048036038101906102e19190610ccf565b6109e2565b005b3480156102f457600080fd5b5061030f600480360381019061030a9190610d5c565b610bc2565b60405161031c9190610d98565b60405180910390f35b600360009054906101000a900473ffffffffffffffffffffffffffffffffffffffff1673ffffffffffffffffffffffffffffffffffffffff163373ffffffffffffffffffffffffffffffffffffffff16146103b5576040517f08c379a00000000000000000000000000000000000000000000000000000000081526004016103ac90610e10565b60405180910390fd5b80600360006101000a81548173ffffffffffffffffffffffffffffffffffffffff021916908373ffffffffffffffffffffffffffffffffffffffff16021790555050565b60016020528060005260406000206000915090505481565b6000600160008373ffffffffffffffffffffffffffffffffffffffff1673ffffffffffffffffffffffffffffffffffffffff168152602001908152602001600020549050919050565b6000600260008373ffffffffffffffffffffffffffffffffffffffff1673ffffffffffffffffffffffffffffffffffffffff168152602001908152602001600020549050919050565b60045481565b6000600454905090565b600360009054906101000a900473ffffffffffffffffffffffffffffffffffffffff1673ffffffffffffffffffffffffffffffffffffffff163373ffffffffffffffffffffffffffffffffffffffff1614610543576040517f08c379a000000000000000000000000000000000000000000000000000000000815260040161053a90610ea2565b60405180910390fd5b600360009054906101000a900473ffffffffffffffffffffffffffffffffffffffff1673ffffffffffffffffffffffffffffffffffffffff16ff5b600360009054906101000a900473ffffffffffffffffffffffffffffffffffffffff1673ffffffffffffffffffffffffffffffffffffffff163373ffffffffffffffffffffffffffffffffffffffff161461060e576040517f08c379a000000000000000000000000000000000000000000000000000000000815260040161060590610f34565b60405180910390fd5b600360009054906101000a900473ffffffffffffffffffffffffffffffffffffffff1673ffffffffffffffffffffffffffffffffffffffff168173ffffffffffffffffffffffffffffffffffffffff160361069e576040517f08c379a000000000000000000000000000000000000000000000000000000000815260040161069590610fc6565b60405180910390fd5b33600360006101000a81548173ffffffffffffffffffffffffffffffffffffffff021916908373ffffffffffffffffffffffffffffffffffffffff16021790555050565b803414610724576040517f08c379a000000000000000000000000000000000000000000000000000000000815260040161071b90611032565b60405180910390fd5b60008111610767576040517f08c379a000000000000000000000000000000000000000000000000000000000815260040161075e906110c4565b60405180910390fd5b6000339080600181540180825580915050600190039060005260206000200160009091909190916101000a81548173ffffffffffffffffffffffffffffffffffffffff021916908373ffffffffffffffffffffffffffffffffffffffff16021790555080600160003373ffffffffffffffffffffffffffffffffffffffff1673ffffffffffffffffffffffffffffffffffffffff1681526020019081526020016000208190555080600460008282546108209190611113565b9250508190555050565b60026020528060005260406000206000915090505481565b6000600160003373ffffffffffffffffffffffffffffffffffffffff1673ffffffffffffffffffffffffffffffffffffffff16815260200190815260200160002054116108c4576040517f08c379a00000000000000000000000000000000000000000000000000000000081526004016108bb906111b9565b60405180910390fd5b60008111610907576040517f08c379a00000000000000000000000000000000000000000000000000000000081526004016108fe9061124b565b60405180910390fd5b600160003373ffffffffffffffffffffffffffffffffffffffff1673ffffffffffffffffffffffffffffffffffffffff16815260200190815260200160002054811115610989576040517f08c379a0000000000000000000000000000000000000000000000000000000008152600401610980906112dd565b60405180910390fd5b80600260003373ffffffffffffffffffffffffffffffffffffffff1673ffffffffffffffffffffffffffffffffffffffff16815260200190815260200160002060008282546109d89190611113565b9250508190555050565b600360009054906101000a900473ffffffffffffffffffffffffffffffffffffffff1673ffffffffffffffffffffffffffffffffffffffff163373ffffffffffffffffffffffffffffffffffffffff1614610a72576040517f08c379a0000000000000000000000000000000000000000000000000000000008152600401610a699061136f565b60405180910390fd5b6000600260008373ffffffffffffffffffffffffffffffffffffffff1673ffffffffffffffffffffffffffffffffffffffff1681526020019081526020016000205411610af4576040517f08c379a0000000000000000000000000000000000000000000000000000000008152600401610aeb90611401565b60405180910390fd5b8073ffffffffffffffffffffffffffffffffffffffff166108fc600260008473ffffffffffffffffffffffffffffffffffffffff1673ffffffffffffffffffffffffffffffffffffffff168152602001908152602001600020549081150290604051600060405180830381858888f19350505050158015610b79573d6000803e3d6000fd5b506000600260008373ffffffffffffffffffffffffffffffffffffffff1673ffffffffffffffffffffffffffffffffffffffff1681526020019081526020016000208190555050565b60008181548110610bd257600080fd5b906000526020600020016000915054906101000a900473ffffffffffffffffffffffffffffffffffffffff1681565b600080fd5b600073ffffffffffffffffffffffffffffffffffffffff82169050919050565b6000610c3182610c06565b9050919050565b610c4181610c26565b8114610c4c57600080fd5b50565b600081359050610c5e81610c38565b92915050565b600060208284031215610c7a57610c79610c01565b5b6000610c8884828501610c4f565b91505092915050565b6000610c9c82610c06565b9050919050565b610cac81610c91565b8114610cb757600080fd5b50565b600081359050610cc981610ca3565b92915050565b600060208284031215610ce557610ce4610c01565b5b6000610cf384828501610cba565b91505092915050565b6000819050919050565b610d0f81610cfc565b82525050565b6000602082019050610d2a6000830184610d06565b92915050565b610d3981610cfc565b8114610d4457600080fd5b50565b600081359050610d5681610d30565b92915050565b600060208284031215610d7257610d71610c01565b5b6000610d8084828501610d47565b91505092915050565b610d9281610c91565b82525050565b6000602082019050610dad6000830184610d89565b92915050565b600082825260208201905092915050565b7f4f6e6c7920746865206f776e65722063616e206772616e74206163636573732e600082015250565b6000610dfa602083610db3565b9150610e0582610dc4565b602082019050919050565b60006020820190508181036000830152610e2981610ded565b9050919050565b7f4f6e6c792074686520776f6e65722063616e2064657374726f7920746865206360008201527f6f6e74726163742e000000000000000000000000000000000000000000000000602082015250565b6000610e8c602883610db3565b9150610e9782610e30565b604082019050919050565b60006020820190508181036000830152610ebb81610e7f565b9050919050565b7f4f6e6c7920746865206f776e65722063616e207265766f6b652061636365737360008201527f2e00000000000000000000000000000000000000000000000000000000000000602082015250565b6000610f1e602183610db3565b9150610f2982610ec2565b604082019050919050565b60006020820190508181036000830152610f4d81610f11565b9050919050565b7f43616e206e6f74207265766f6b652061636365737320666f722074686520637560008201527f7272656e74206f776e65722e0000000000000000000000000000000000000000602082015250565b6000610fb0602c83610db3565b9150610fbb82610f54565b604082019050919050565b60006020820190508181036000830152610fdf81610fa3565b9050919050565b7f496e636f7272656374207072656d69756d20616d6f756e742e00000000000000600082015250565b600061101c601983610db3565b915061102782610fe6565b602082019050919050565b6000602082019050818103600083015261104b8161100f565b9050919050565b7f5072656d69756d20616d6f756e74206d7573742062652067726561746572207460008201527f68616e20302e0000000000000000000000000000000000000000000000000000602082015250565b60006110ae602683610db3565b91506110b982611052565b604082019050919050565b600060208201905081810360008301526110dd816110a1565b9050919050565b7f4e487b7100000000000000000000000000000000000000000000000000000000600052601160045260246000fd5b600061111e82610cfc565b915061112983610cfc565b9250828201905080821115611141576111406110e4565b5b92915050565b7f6d757374206861766520612076616c696420706f6c69637920746f2066696c6560008201527f206120636c61696d000000000000000000000000000000000000000000000000602082015250565b60006111a3602883610db3565b91506111ae82611147565b604082019050919050565b600060208201905081810360008301526111d281611196565b9050919050565b7f436c61696d20616d6f756e74206d75737420626520677265617465722074686160008201527f6e20302e00000000000000000000000000000000000000000000000000000000602082015250565b6000611235602483610db3565b9150611240826111d9565b604082019050919050565b6000602082019050818103600083015261126481611228565b9050919050565b7f436c61696d20616d6f756e742063616e6e6f74206265206d6f7265207468616e60008201527f2074686520706f6c696379000000000000000000000000000000000000000000602082015250565b60006112c7602b83610db3565b91506112d28261126b565b604082019050919050565b600060208201905081810360008301526112f6816112ba565b9050919050565b7f4f6e6c7920746865206f776e65722063616e20617070726f766520746865204360008201527f6c61696d732e0000000000000000000000000000000000000000000000000000602082015250565b6000611359602683610db3565b9150611364826112fd565b604082019050919050565b600060208201905081810360008301526113888161134c565b9050919050565b7f506f6c696379686f6c64657220686173206e6f206f75747374616e64696e672060008201527f636c61696d732e00000000000000000000000000000000000000000000000000602082015250565b60006113eb602783610db3565b91506113f68261138f565b604082019050919050565b6000602082019050818103600083015261141a816113de565b905091905056fea2646970667358221220d5d45e4ae9027fadae1aa336551d35c9ca9d51b16d209439e0808b31692d8bb464736f6c63430008110033",
  "immutableReferences": {},
  "source": "// SPDX-License-Identifier: MIT\r\n\r\npragma solidity ^0.8.17;\r\n\r\ncontract Insurance {\r\n    address[] public policyholders;\r\n    mapping(address => uint256) public policies;\r\n    mapping(address => uint256) public claims;\r\n    address payable  owner;\r\n    uint256 public totalPremium;\r\n\r\n    constructor(){\r\n        owner = payable(msg.sender);\r\n    }\r\n    \r\n    function purchasePolicy(uint256 premium) public payable {\r\n        require(msg.value ==premium, \"Incorrect premium amount.\");\r\n        require(premium > 0, \"Premium amount must be greater than 0.\");\r\n        policyholders.push(msg.sender);\r\n        policies[msg.sender] = premium;\r\n        totalPremium += premium;\r\n    }\r\n\r\n    function fileClaim(uint256 amount) public{\r\n        require(policies[msg.sender]>0, \"must have a valid policy to file a claim\");\r\n        require(amount>0, \"Claim amount must be greater than 0.\");\r\n        require(amount <= policies[msg.sender], \"Claim amount cannot be more than the policy\");\r\n        claims[msg.sender] += amount;\r\n    }\r\n\r\n    function approveClaim(address policyholder) public {\r\n        require(msg.sender == owner, \"Only the owner can approve the Claims.\");\r\n        require(claims[policyholder] >0, \"Policyholder has no outstanding claims.\");\r\n        payable(policyholder).transfer(claims[policyholder]);\r\n        claims[policyholder] = 0;\r\n    }\r\n\r\n    function getPolicy(address policyholder) public view returns (uint256) {\r\n        return policies[policyholder];\r\n\r\n    }\r\n\r\n    function getClaim(address policyholder) public view returns (uint256) {\r\n        return claims[policyholder];\r\n    }\r\n\r\n    function getTotalPremium() public view returns (uint256) {\r\n        return totalPremium;\r\n    }\r\n\r\n    function grantAccess(address payable user) public {\r\n        require(msg.sender == owner, \"Only the owner can grant access.\");\r\n        owner = user;\r\n    }\r\n\r\n    function revokeAccess(address payable user) public{\r\n        require(msg.sender == owner, \"Only the owner can revoke access.\" );\r\n        require(user != owner, \"Can not revoke access for the current owner.\");\r\n        owner = payable(msg.sender);\r\n    }\r\n\r\n    function destroy() public {\r\n        require(msg.sender == owner, \"Only the woner can destroy the contract.\");\r\n        selfdestruct(owner);\r\n    }\r\n\r\n}",
  "sourcePath": "D:\\UNI\\THESIS\\smartcontract\\contracts\\insurance.sol",
  "compiler": {
    "name": "solc",
    "version": "0.8.17+commit.8df45f5f.Emscripten.clang"
  },
  "schemaVersion": "3.4.11",
  "updatedAt": "2023-02-04T16:50:30.113Z",
  "devdoc": {
    "kind": "dev",
    "methods": {},
    "version": 1
  },
  "userdoc": {
    "kind": "user",
    "methods": {},
    "version": 1
  }
}